:0300000002045C9B
:0C045C00787FE4F6D8FD758130020409B9
:10041E00C2A6D2A5D2A700000000E580339200C28A
:03042E00A7A20082
:0104310022A8
:1000030012041E40FBC2A6C2A5C2A700008F800037
:0B0013000000D2A700000000C2A722DE
:07047100EF4480FF020003CD
:1003480012041E40FBD2A6C2A5C2A700008F8000DF
:0B035800000000D2A7000000C2A72296
:1003AF008F0C8D0D7F0A120363AF0C120471AF0D0A
:0803BF001203487F01020363F1
:100322007F381200037F011203637F0C1200037FE8
:10033200011203637F061200037F011203637F0130
:0603420012000302036338
:1003C700EF1FAA0670011E4A600BE4FDEDC394649B
:0503D70050EE0D80F75F
:0103DC0022FE
:07047800AE071FEE70FA222F
:0D043200EFD3940040077E72DEFE1F80F3C2
:01043F00229A
:06047F00E4FF0FBF01FCC9
:010485002254
:10036300AE071FEE6013E4FCFDC3ED9464EC940050
:0903730050EE0DBD00010C80F0FC
:01037C00225E
:10037D00D29012047FC2907F197E001203C7D290D3
:09038D0012047F12047F02047FB8
:1002F100E4F5183090FD12047F12047F12047FE4AC
:10030100F5193090037519012090FDE51D25E0F5E3
:100311001DE519421D0518E518C3940840D5AF1D08
:0103210022B9
:0601F5008B0C8A0D890E3F
:1001FB0012037DD2903090030202893090FD209043
:10020B00FD1202F18F141202F18F151202F18F12EF
:10021B001202F18F131202F18F16C290E4F517122E
:10022B00047F0517E517C3940740F4D290E5142516
:10023B001525122513FF65167044E514FDAB0CAAAA
:10024B000DA90EE48DF01201A9E515FDAB0CAA0D5D
:10025B00A90E900002E48DF01201C8E512FDAB0F60
:10026B00AA10A911E48DF01201A9E513FDAB0FAA99
:0E027B0010A911900002E48DF01201C88F1638
:010289002252
:10002600750F007510007511217B007A0079251275
:1000360001F512044EAB07AE25AF267C007D0A12F1
:100046000154EF2430F508AE25AF267C007D0A1258
:100056000154ED2430F509AE21AF227C007D0A1251
:100066000154EF2430F50AAE21AF227C007D0A123E
:100076000154ED2430F50B85082985092A752B2CAA
:10008600850A2CF52D752E2C7E00AF037C007D0A8B
:10009600120154ED2430F52F7B007A0079291202E3
:1000A6008A1203227F851200037D53E4FF1203AFF9
:1000B6007D687F011203AF7D697F021203AF7D4425
:1000C6007F031203AF7D757F041203AF7D3A7F0570
:1000D6001203AFAD087F061203AFAD097F07120307
:1000E600AF7D257F081203AF7D577F401203AF7D9A
:1000F600657F411203AF7D6E7F421203AF7D447F61
:10010600431203AF7D757F441203AF7D3A7F4512DC
:1001160003AFAD0A7F461203AFAD0B7F471203AFA5
:100126007DDF7F481203AF7D437F491203AF7F888F
:050136007E130203C767
:0E044000C2ACC2998F993099FDC299D2AC22FC
:10028A008B0C8A0D890EAB0CAA0DA90E12013BFF2D
:10029A0060151204407F051204787401250EF50ECC
:1002AA00E4350DF50D80DF7F051204787F0A12040C
:0402BA0040020432C8
:05001E00D2B5D2B622AC
:1003DD00759850758920758780758DF3758BF3C26F
:0603ED00ACD2AFD28E225B
:09046800D2A0D2A1D2A2D2A3229B
:1002BE00BF3002D293BF3102C2A0BF3202C2A1BF71
:1002CE003302C2A2BF3402C2A3BF3502C293BF36ED
:1002DE0002D2A0BF3702D2A1BF3802D2A2BF3902CA
:0302EE00D2A32276
:1004090012001E1203DD120468C2931200267FB87F
:0504190012036380F6F0
:030023000203963F
:0A039600C0D075D000C00730980AEF
:0A03A00085991AC298AF1A1202BE26
:0503AA00D007D0D032A5
:0E044E00D2B72097061203F37F00227F01220F
:1003F300750C32AF0C150CEF600BB2B77F0A7E00A1
:050403001203C780EEAA
:0104080022D1
:10013B00BB010689828A83E0225002E722BBFE02C2
:09014B00E32289828A83E49322F5
:10015400BC000BBE0029EF8DF084FFADF022E4CC8F
:10016400F875F008EF2FFFEE33FEEC33FCEE9DEC58
:10017400984005FCEE9DFE0FD5F0E9E4CEFD22ED9E
:10018400F8F5F0EE8420D21CFEADF075F008EF2FE8
:10019400FFED33FD4007985006D5F0F222C398FDD9
:0501A4000FD5F0EA2276
:1001A900BB010A89828A83F0E5F0A3F0225006F7A1
:0F01B90009A7F01922BBFE06F3E5F009F319229E
:1001C800F8BB0111E58229F582E5833AF583E8F069
:1001D800E5F0A3F0225009E92582C8F608A6F02226
:0D01E800BBFE09E92582C8F2E5F008F2220D
:00000001FF
